:020000040000FA
:0400000006EF00F017
:020004000000FA
:0800080028EF00F0006AC00EB1
:10001000946E080EB86E020EB06E080EAF6E2C0E07
:10002000AC6E900EAB6E0E0EC16E010EC26E350E32
:10003000C06E9D80D09E9E90F28EF28C8A0ECD6E08
:10004000000ECF6E000ECE6EFC0E956ECD80FFD7EB
:10005000010E006204D0006AC28237EF00F0010E88
:100060000026000ECF6E000ECE6E9E901000C2B223
:10007000FED7C4509EA8FED7AD6EC2809E909EAAA9
:10008000FED7ABA402D0AE50FAD7ABA204D0AB9847
:100090000000AB88F4D7AE508C6E000ECF6E000E11
:0600A000CE6E9E901000E0
:020000040030CA
:0100000004FB
:010001000CF2
:0100020000FD
:0100030000FC
:0100050001F9
:010006008079
:010008000FE8
:01000900C036
:01000A000FE6
:01000B00E014
:01000C000FE4
:01000D0040B2
:00000001FF
